{
  "_format": "hh-sol-artifact-1",
  "contractName": "consultVerse",
  "sourceName": "contracts/consultVerse.sol",
  "abi": [
    {
      "inputs": [],
      "stateMutability": "nonpayable",
      "type": "constructor"
    },
    {
      "anonymous": false,
      "inputs": [
        {
          "indexed": false,
          "internalType": "address",
          "name": "ClientAddress",
          "type": "address"
        },
        {
          "indexed": false,
          "internalType": "string",
          "name": "ClientName",
          "type": "string"
        },
        {
          "indexed": false,
          "internalType": "string",
          "name": "ClientEmailId",
          "type": "string"
        },
        {
          "indexed": false,
          "internalType": "string",
          "name": "ClientPhoneNumber",
          "type": "string"
        },
        {
          "indexed": false,
          "internalType": "string",
          "name": "IntersestedConsulation",
          "type": "string"
        }
      ],
      "name": "AddedClient",
      "type": "event"
    },
    {
      "anonymous": false,
      "inputs": [
        {
          "indexed": false,
          "internalType": "address",
          "name": "ExpertAddress",
          "type": "address"
        },
        {
          "indexed": false,
          "internalType": "string",
          "name": "ExpertName",
          "type": "string"
        },
        {
          "indexed": false,
          "internalType": "string",
          "name": "EmailId",
          "type": "string"
        },
        {
          "indexed": false,
          "internalType": "string",
          "name": "PhoneNumber",
          "type": "string"
        },
        {
          "indexed": false,
          "internalType": "string",
          "name": "Expertise",
          "type": "string"
        },
        {
          "indexed": false,
          "internalType": "uint256",
          "name": "ExpertFees",
          "type": "uint256"
        }
      ],
      "name": "AddedExpert",
      "type": "event"
    },
    {
      "anonymous": false,
      "inputs": [
        {
          "indexed": false,
          "internalType": "address",
          "name": "ExpertAddress",
          "type": "address"
        },
        {
          "indexed": false,
          "internalType": "uint256",
          "name": "RequestNumber",
          "type": "uint256"
        },
        {
          "indexed": false,
          "internalType": "string",
          "name": "ExpertName",
          "type": "string"
        },
        {
          "indexed": false,
          "internalType": "string",
          "name": "ExpertemailAddress",
          "type": "string"
        },
        {
          "indexed": false,
          "internalType": "string",
          "name": "phoneNumber",
          "type": "string"
        },
        {
          "indexed": false,
          "internalType": "string",
          "name": "expertise",
          "type": "string"
        },
        {
          "indexed": false,
          "internalType": "uint256",
          "name": "coursefees",
          "type": "uint256"
        }
      ],
      "name": "ExpertRequested",
      "type": "event"
    },
    {
      "inputs": [
        {
          "internalType": "address",
          "name": "_ExpertAddress",
          "type": "address"
        }
      ],
      "name": "AcceptParticularExpertRequest",
      "outputs": [],
      "stateMutability": "nonpayable",
      "type": "function"
    },
    {
      "inputs": [
        {
          "internalType": "string",
          "name": "_ClientName",
          "type": "string"
        },
        {
          "internalType": "string",
          "name": "_ClientEmailID",
          "type": "string"
        },
        {
          "internalType": "string",
          "name": "_ClientPhone",
          "type": "string"
        },
        {
          "internalType": "string",
          "name": "_InterestedConsulation",
          "type": "string"
        }
      ],
      "name": "AddClient",
      "outputs": [],
      "stateMutability": "nonpayable",
      "type": "function"
    },
    {
      "inputs": [
        {
          "internalType": "address",
          "name": "",
          "type": "address"
        }
      ],
      "name": "AllRequestes",
      "outputs": [
        {
          "internalType": "address",
          "name": "whoRequested",
          "type": "address"
        },
        {
          "internalType": "bool",
          "name": "requestStatus",
          "type": "bool"
        },
        {
          "internalType": "uint256",
          "name": "ReqIndex",
          "type": "uint256"
        }
      ],
      "stateMutability": "view",
      "type": "function"
    },
    {
      "inputs": [
        {
          "internalType": "address",
          "name": "_Expert",
          "type": "address"
        }
      ],
      "name": "EnrollInExpertClass",
      "outputs": [],
      "stateMutability": "payable",
      "type": "function"
    },
    {
      "inputs": [
        {
          "internalType": "string",
          "name": "_ExpertName",
          "type": "string"
        },
        {
          "internalType": "string",
          "name": "_EmailId",
          "type": "string"
        },
        {
          "internalType": "string",
          "name": "_PhoneNumber",
          "type": "string"
        },
        {
          "internalType": "string",
          "name": "_Expertise",
          "type": "string"
        },
        {
          "internalType": "uint256",
          "name": "_ExpertFees",
          "type": "uint256"
        }
      ],
      "name": "FillExpertProfile",
      "outputs": [],
      "stateMutability": "nonpayable",
      "type": "function"
    },
    {
      "inputs": [],
      "name": "NoOfRequests",
      "outputs": [
        {
          "internalType": "uint256",
          "name": "",
          "type": "uint256"
        }
      ],
      "stateMutability": "view",
      "type": "function"
    },
    {
      "inputs": [
        {
          "internalType": "address",
          "name": "",
          "type": "address"
        }
      ],
      "name": "OneAdminMap",
      "outputs": [
        {
          "internalType": "address",
          "name": "WalletAddress",
          "type": "address"
        },
        {
          "internalType": "string",
          "name": "AdminName",
          "type": "string"
        },
        {
          "internalType": "string",
          "name": "Role",
          "type": "string"
        }
      ],
      "stateMutability": "view",
      "type": "function"
    },
    {
      "inputs": [
        {
          "internalType": "address",
          "name": "",
          "type": "address"
        }
      ],
      "name": "OneClientMap",
      "outputs": [
        {
          "internalType": "address",
          "name": "ClientAddress",
          "type": "address"
        },
        {
          "internalType": "string",
          "name": "name",
          "type": "string"
        },
        {
          "internalType": "string",
          "name": "emailId",
          "type": "string"
        },
        {
          "internalType": "string",
          "name": "phoneNumber",
          "type": "string"
        },
        {
          "internalType": "string",
          "name": "IntersestedConsulation",
          "type": "string"
        }
      ],
      "stateMutability": "view",
      "type": "function"
    },
    {
      "inputs": [
        {
          "internalType": "address",
          "name": "",
          "type": "address"
        }
      ],
      "name": "OneExpertMap",
      "outputs": [
        {
          "internalType": "address",
          "name": "ExpertAddress",
          "type": "address"
        },
        {
          "internalType": "string",
          "name": "name",
          "type": "string"
        },
        {
          "internalType": "string",
          "name": "emailId",
          "type": "string"
        },
        {
          "internalType": "string",
          "name": "phoneNumber",
          "type": "string"
        },
        {
          "internalType": "string",
          "name": "expertise",
          "type": "string"
        },
        {
          "internalType": "uint256",
          "name": "courseFess",
          "type": "uint256"
        }
      ],
      "stateMutability": "view",
      "type": "function"
    },
    {
      "inputs": [],
      "name": "checkRequestStatus",
      "outputs": [
        {
          "internalType": "bool",
          "name": "",
          "type": "bool"
        }
      ],
      "stateMutability": "view",
      "type": "function"
    },
    {
      "inputs": [
        {
          "internalType": "address",
          "name": "_expertAddress",
          "type": "address"
        }
      ],
      "name": "getClientsOfExpert",
      "outputs": [
        {
          "internalType": "address[]",
          "name": "",
          "type": "address[]"
        }
      ],
      "stateMutability": "view",
      "type": "function"
    },
    {
      "inputs": [],
      "name": "requestAdmin",
      "outputs": [],
      "stateMutability": "nonpayable",
      "type": "function"
    },
    {
      "stateMutability": "payable",
      "type": "receive"
    }
  ],
  "bytecode": "0x6080604052600080553480156200001557600080fd5b506000600360003373ffffffffffffffffffffffffffffffffffffffff1673ffffffffffffffffffffffffffffffffffffffff1681526020019081526020016000209050338160000160006101000a81548173ffffffffffffffffffffffffffffffffffffffff021916908373ffffffffffffffffffffffffffffffffffffffff1602179055506040518060400160405280600781526020017f796f726963686900000000000000000000000000000000000000000000000000815250816001019081620000e49190620003af565b506040518060400160405280600581526020017f41646d696e0000000000000000000000000000000000000000000000000000008152508160020190816200012d9190620003af565b505062000496565b600081519050919050565b7f4e487b7100000000000000000000000000000000000000000000000000000000600052604160045260246000fd5b7f4e487b7100000000000000000000000000000000000000000000000000000000600052602260045260246000fd5b60006002820490506001821680620001b757607f821691505b602082108103620001cd57620001cc6200016f565b5b50919050565b60008190508160005260206000209050919050565b60006020601f8301049050919050565b600082821b905092915050565b600060088302620002377fffffffffffffffffffffffffffffffffffffffffffffffffffffffffffffffff82620001f8565b620002438683620001f8565b95508019841693508086168417925050509392505050565b6000819050919050565b6000819050919050565b6000620002906200028a62000284846200025b565b62000265565b6200025b565b9050919050565b6000819050919050565b620002ac836200026f565b620002c4620002bb8262000297565b84845462000205565b825550505050565b600090565b620002db620002cc565b620002e8818484620002a1565b505050565b5b81811015620003105762000304600082620002d1565b600181019050620002ee565b5050565b601f8211156200035f576200032981620001d3565b6200033484620001e8565b8101602085101562000344578190505b6200035c6200035385620001e8565b830182620002ed565b50505b505050565b600082821c905092915050565b6000620003846000198460080262000364565b1980831691505092915050565b60006200039f838362000371565b9150826002028217905092915050565b620003ba8262000135565b67ffffffffffffffff811115620003d657620003d562000140565b5b620003e282546200019e565b620003ef82828562000314565b600060209050601f83116001811462000427576000841562000412578287015190505b6200041e858262000391565b8655506200048e565b601f1984166200043786620001d3565b60005b8281101562000461578489015182556001820191506020850194506020810190506200043a565b868310156200048157848901516200047d601f89168262000371565b8355505b6001600288020188555050505b505050505050565b611f8480620004a66000396000f3fe6080604052600436106100ab5760003560e01c806362e1665b1161006457806362e1665b146101ce578063903c8aec14610210578063afe920401461024f578063bd668c7714610290578063d87f70fe146102b9578063e88ba893146102e2576100b2565b80630c9a01f1146100b75780630eca5628146100f6578063126556e31461013357806315888caa1461015c57806331683b531461017857806361a9796e146101a3576100b2565b366100b257005b600080fd5b3480156100c357600080fd5b506100de60048036038101906100d99190611293565b6102f9565b6040516100ed9392919061135f565b60405180910390f35b34801561010257600080fd5b5061011d60048036038101906101189190611293565b610453565b60405161012a9190611462565b60405180910390f35b34801561013f57600080fd5b5061015a600480360381019061015591906115b9565b610523565b005b61017660048036038101906101719190611293565b610637565b005b34801561018457600080fd5b5061018d6107fa565b60405161019a91906116a9565b60405180910390f35b3480156101af57600080fd5b506101b8610800565b6040516101c591906116df565b60405180910390f35b3480156101da57600080fd5b506101f560048036038101906101f09190611293565b610927565b604051610207969594939291906116fa565b60405180910390f35b34801561021c57600080fd5b5061023760048036038101906102329190611293565b610ba3565b60405161024693929190611777565b60405180910390f35b34801561025b57600080fd5b5061027660048036038101906102719190611293565b610bfa565b6040516102879594939291906117ae565b60405180910390f35b34801561029c57600080fd5b506102b760048036038101906102b29190611849565b610e70565b005b3480156102c557600080fd5b506102e060048036038101906102db9190611293565b610f90565b005b3480156102ee57600080fd5b506102f76110be565b005b60036020528060005260406000206000915090508060000160009054906101000a900473ffffffffffffffffffffffffffffffffffffffff169080600101805461034290611963565b80601f016020809104026020016040519081016040528092919081815260200182805461036e90611963565b80156103bb5780601f10610390576101008083540402835291602001916103bb565b820191906000526020600020905b81548152906001019060200180831161039e57829003601f168201915b5050505050908060020180546103d090611963565b80601f01602080910402602001604051908101604052809291908181526020018280546103fc90611963565b80156104495780601f1061041e57610100808354040283529160200191610449565b820191906000526020600020905b81548152906001019060200180831161042c57829003601f168201915b5050505050905083565b6060600160008373ffffffffffffffffffffffffffffffffffffffff1673ffffffffffffffffffffffffffffffffffffffff16815260200190815260200160002060060180548060200260200160405190810160405280929190818152602001828054801561051757602002820191906000526020600020905b8160009054906101000a900473ffffffffffffffffffffffffffffffffffffffff1673ffffffffffffffffffffffffffffffffffffffff16815260200190600101908083116104cd575b50505050509050919050565b6000600260003373ffffffffffffffffffffffffffffffffffffffff1673ffffffffffffffffffffffffffffffffffffffff1681526020019081526020016000209050338160000160006101000a81548173ffffffffffffffffffffffffffffffffffffffff021916908373ffffffffffffffffffffffffffffffffffffffff160217905550848160010190816105ba9190611b40565b50838160020190816105cc9190611b40565b50828160030190816105de9190611b40565b50818160040190816105f09190611b40565b507f65e833733571e598380f84b2c912c3efbe9fcba090c3a5f4f4a431fa3392fbb333868686866040516106289594939291906117ae565b60405180910390a15050505050565b3373ffffffffffffffffffffffffffffffffffffffff16600260003373ffffffffffffffffffffffffffffffffffffffff1673ffffffffffffffffffffffffffffffffffffffff16815260200190815260200160002060000160009054906101000a900473ffffffffffffffffffffffffffffffffffffffff1673ffffffffffffffffffffffffffffffffffffffff1614610707576040517f08c379a00000000000000000000000000000000000000000000000000000000081526004016106fe90611c84565b60405180910390fd5b6000600160008373ffffffffffffffffffffffffffffffffffffffff1673ffffffffffffffffffffffffffffffffffffffff168152602001908152602001600020905080600601339080600181540180825580915050600190039060005260206000200160009091909190916101000a81548173ffffffffffffffffffffffffffffffffffffffff021916908373ffffffffffffffffffffffffffffffffffffffff1602179055503073ffffffffffffffffffffffffffffffffffffffff166108fc349081150290604051600060405180830381858888f193505050501580156107f5573d6000803e3d6000fd5b505050565b60005481565b60003373ffffffffffffffffffffffffffffffffffffffff16600160003373ffffffffffffffffffffffffffffffffffffffff1673ffffffffffffffffffffffffffffffffffffffff16815260200190815260200160002060000160009054906101000a900473ffffffffffffffffffffffffffffffffffffffff1673ffffffffffffffffffffffffffffffffffffffff16146108d2576040517f08c379a00000000000000000000000000000000000000000000000000000000081526004016108c990611d16565b60405180910390fd5b600460003373ffffffffffffffffffffffffffffffffffffffff1673ffffffffffffffffffffffffffffffffffffffff16815260200190815260200160002060000160149054906101000a900460ff16905090565b60016020528060005260406000206000915090508060000160009054906101000a900473ffffffffffffffffffffffffffffffffffffffff169080600101805461097090611963565b80601f016020809104026020016040519081016040528092919081815260200182805461099c90611963565b80156109e95780601f106109be576101008083540402835291602001916109e9565b820191906000526020600020905b8154815290600101906020018083116109cc57829003601f168201915b5050505050908060020180546109fe90611963565b80601f0160208091040260200160405190810160405280929190818152602001828054610a2a90611963565b8015610a775780601f10610a4c57610100808354040283529160200191610a77565b820191906000526020600020905b815481529060010190602001808311610a5a57829003601f168201915b505050505090806003018054610a8c90611963565b80601f0160208091040260200160405190810160405280929190818152602001828054610ab890611963565b8015610b055780601f10610ada57610100808354040283529160200191610b05565b820191906000526020600020905b815481529060010190602001808311610ae857829003601f168201915b505050505090806004018054610b1a90611963565b80601f0160208091040260200160405190810160405280929190818152602001828054610b4690611963565b8015610b935780601f10610b6857610100808354040283529160200191610b93565b820191906000526020600020905b815481529060010190602001808311610b7657829003601f168201915b5050505050908060050154905086565b60046020528060005260406000206000915090508060000160009054906101000a900473ffffffffffffffffffffffffffffffffffffffff16908060000160149054906101000a900460ff16908060010154905083565b60026020528060005260406000206000915090508060000160009054906101000a900473ffffffffffffffffffffffffffffffffffffffff1690806001018054610c4390611963565b80601f0160208091040260200160405190810160405280929190818152602001828054610c6f90611963565b8015610cbc5780601f10610c9157610100808354040283529160200191610cbc565b820191906000526020600020905b815481529060010190602001808311610c9f57829003601f168201915b505050505090806002018054610cd190611963565b80601f0160208091040260200160405190810160405280929190818152602001828054610cfd90611963565b8015610d4a5780601f10610d1f57610100808354040283529160200191610d4a565b820191906000526020600020905b815481529060010190602001808311610d2d57829003601f168201915b505050505090806003018054610d5f90611963565b80601f0160208091040260200160405190810160405280929190818152602001828054610d8b90611963565b8015610dd85780601f10610dad57610100808354040283529160200191610dd8565b820191906000526020600020905b815481529060010190602001808311610dbb57829003601f168201915b505050505090806004018054610ded90611963565b80601f0160208091040260200160405190810160405280929190818152602001828054610e1990611963565b8015610e665780601f10610e3b57610100808354040283529160200191610e66565b820191906000526020600020905b815481529060010190602001808311610e4957829003601f168201915b5050505050905085565b6000600160003373ffffffffffffffffffffffffffffffffffffffff1673ffffffffffffffffffffffffffffffffffffffff1681526020019081526020016000209050338160000160006101000a81548173ffffffffffffffffffffffffffffffffffffffff021916908373ffffffffffffffffffffffffffffffffffffffff16021790555085816001019081610f079190611b40565b5084816002019081610f199190611b40565b5083816003019081610f2b9190611b40565b5082816004019081610f3d9190611b40565b508181600501819055507fb9123145fbe6acafc80dda10c06614bfa16a19965cb73b45964003ed3ddbb279338787878787604051610f80969594939291906116fa565b60405180910390a1505050505050565b3373ffffffffffffffffffffffffffffffffffffffff16600360003373ffffffffffffffffffffffffffffffffffffffff1673ffffffffffffffffffffffffffffffffffffffff16815260200190815260200160002060000160009054906101000a900473ffffffffffffffffffffffffffffffffffffffff1673ffffffffffffffffffffffffffffffffffffffff1614611060576040517f08c379a000000000000000000000000000000000000000000000000000000000815260040161105790611da8565b60405180910390fd5b6001600460008373ffffffffffffffffffffffffffffffffffffffff1673ffffffffffffffffffffffffffffffffffffffff16815260200190815260200160002060000160146101000a81548160ff02191690831515021790555050565b6000600460003373ffffffffffffffffffffffffffffffffffffffff1673ffffffffffffffffffffffffffffffffffffffff1681526020019081526020016000209050338160000160006101000a81548173ffffffffffffffffffffffffffffffffffffffff021916908373ffffffffffffffffffffffffffffffffffffffff16021790555060008160000160146101000a81548160ff021916908315150217905550600054816001018190555060008081548092919061117e90611df7565b91905055506000600160003373ffffffffffffffffffffffffffffffffffffffff1673ffffffffffffffffffffffffffffffffffffffff16815260200190815260200160002090507fa62794136c8f9c39f82afb2ad511eb0f7b23a00624606a66513dca2bb09f6cb63383600101548360010184600201856003018660040187600501546040516112159796959493929190611ec3565b60405180910390a15050565b6000604051905090565b600080fd5b600080fd5b600073ffffffffffffffffffffffffffffffffffffffff82169050919050565b600061126082611235565b9050919050565b61127081611255565b811461127b57600080fd5b50565b60008135905061128d81611267565b92915050565b6000602082840312156112a9576112a861122b565b5b60006112b78482850161127e565b91505092915050565b6112c981611255565b82525050565b600081519050919050565b600082825260208201905092915050565b60005b838110156113095780820151818401526020810190506112ee565b60008484015250505050565b6000601f19601f8301169050919050565b6000611331826112cf565b61133b81856112da565b935061134b8185602086016112eb565b61135481611315565b840191505092915050565b600060608201905061137460008301866112c0565b81810360208301526113868185611326565b9050818103604083015261139a8184611326565b9050949350505050565b600081519050919050565b600082825260208201905092915050565b6000819050602082019050919050565b6113d981611255565b82525050565b60006113eb83836113d0565b60208301905092915050565b6000602082019050919050565b600061140f826113a4565b61141981856113af565b9350611424836113c0565b8060005b8381101561145557815161143c88826113df565b9750611447836113f7565b925050600181019050611428565b5085935050505092915050565b6000602082019050818103600083015261147c8184611404565b905092915050565b600080fd5b600080fd5b7f4e487b7100000000000000000000000000000000000000000000000000000000600052604160045260246000fd5b6114c682611315565b810181811067ffffffffffffffff821117156114e5576114e461148e565b5b80604052505050565b60006114f8611221565b905061150482826114bd565b919050565b600067ffffffffffffffff8211156115245761152361148e565b5b61152d82611315565b9050602081019050919050565b82818337600083830152505050565b600061155c61155784611509565b6114ee565b90508281526020810184848401111561157857611577611489565b5b61158384828561153a565b509392505050565b600082601f8301126115a05761159f611484565b5b81356115b0848260208601611549565b91505092915050565b600080600080608085870312156115d3576115d261122b565b5b600085013567ffffffffffffffff8111156115f1576115f0611230565b5b6115fd8782880161158b565b945050602085013567ffffffffffffffff81111561161e5761161d611230565b5b61162a8782880161158b565b935050604085013567ffffffffffffffff81111561164b5761164a611230565b5b6116578782880161158b565b925050606085013567ffffffffffffffff81111561167857611677611230565b5b6116848782880161158b565b91505092959194509250565b6000819050919050565b6116a381611690565b82525050565b60006020820190506116be600083018461169a565b92915050565b60008115159050919050565b6116d9816116c4565b82525050565b60006020820190506116f460008301846116d0565b92915050565b600060c08201905061170f60008301896112c0565b81810360208301526117218188611326565b905081810360408301526117358187611326565b905081810360608301526117498186611326565b9050818103608083015261175d8185611326565b905061176c60a083018461169a565b979650505050505050565b600060608201905061178c60008301866112c0565b61179960208301856116d0565b6117a6604083018461169a565b949350505050565b600060a0820190506117c360008301886112c0565b81810360208301526117d58187611326565b905081810360408301526117e98186611326565b905081810360608301526117fd8185611326565b905081810360808301526118118184611326565b90509695505050505050565b61182681611690565b811461183157600080fd5b50565b6000813590506118438161181d565b92915050565b600080600080600060a086880312156118655761186461122b565b5b600086013567ffffffffffffffff81111561188357611882611230565b5b61188f8882890161158b565b955050602086013567ffffffffffffffff8111156118b0576118af611230565b5b6118bc8882890161158b565b945050604086013567ffffffffffffffff8111156118dd576118dc611230565b5b6118e98882890161158b565b935050606086013567ffffffffffffffff81111561190a57611909611230565b5b6119168882890161158b565b925050608061192788828901611834565b9150509295509295909350565b7f4e487b7100000000000000000000000000000000000000000000000000000000600052602260045260246000fd5b6000600282049050600182168061197b57607f821691505b60208210810361198e5761198d611934565b5b50919050565b60008190508160005260206000209050919050565b60006020601f8301049050919050565b600082821b905092915050565b6000600883026119f67fffffffffffffffffffffffffffffffffffffffffffffffffffffffffffffffff826119b9565b611a0086836119b9565b95508019841693508086168417925050509392505050565b6000819050919050565b6000611a3d611a38611a3384611690565b611a18565b611690565b9050919050565b6000819050919050565b611a5783611a22565b611a6b611a6382611a44565b8484546119c6565b825550505050565b600090565b611a80611a73565b611a8b818484611a4e565b505050565b5b81811015611aaf57611aa4600082611a78565b600181019050611a91565b5050565b601f821115611af457611ac581611994565b611ace846119a9565b81016020851015611add578190505b611af1611ae9856119a9565b830182611a90565b50505b505050565b600082821c905092915050565b6000611b1760001984600802611af9565b1980831691505092915050565b6000611b308383611b06565b9150826002028217905092915050565b611b49826112cf565b67ffffffffffffffff811115611b6257611b6161148e565b5b611b6c8254611963565b611b77828285611ab3565b600060209050601f831160018114611baa5760008415611b98578287015190505b611ba28582611b24565b865550611c0a565b601f198416611bb886611994565b60005b82811015611be057848901518255600182019150602085019450602081019050611bbb565b86831015611bfd5784890151611bf9601f891682611b06565b8355505b6001600288020188555050505b505050505050565b7f4f6e6c7920436c69656e742043616e204d6f6469667920746869732046756e6360008201527f74696f6e00000000000000000000000000000000000000000000000000000000602082015250565b6000611c6e6024836112da565b9150611c7982611c12565b604082019050919050565b60006020820190508181036000830152611c9d81611c61565b9050919050565b7f4f6e6c7920457870657274732043616e204d6f6469667920746869732046756e60008201527f6374696f6e000000000000000000000000000000000000000000000000000000602082015250565b6000611d006025836112da565b9150611d0b82611ca4565b604082019050919050565b60006020820190508181036000830152611d2f81611cf3565b9050919050565b7f4f6e6c792041646d696e2043616e204d6f6469667920746869732046756e637460008201527f696f6e0000000000000000000000000000000000000000000000000000000000602082015250565b6000611d926023836112da565b9150611d9d82611d36565b604082019050919050565b60006020820190508181036000830152611dc181611d85565b9050919050565b7f4e487b7100000000000000000000000000000000000000000000000000000000600052601160045260246000fd5b6000611e0282611690565b91507fffffffffffffffffffffffffffffffffffffffffffffffffffffffffffffffff8203611e3457611e33611dc8565b5b600182019050919050565b60008154611e4c81611963565b611e5681866112da565b94506001821660008114611e715760018114611e8757611eba565b60ff198316865281151560200286019350611eba565b611e9085611994565b60005b83811015611eb257815481890152600182019150602081019050611e93565b808801955050505b50505092915050565b600060e082019050611ed8600083018a6112c0565b611ee5602083018961169a565b8181036040830152611ef78188611e3f565b90508181036060830152611f0b8187611e3f565b90508181036080830152611f1f8186611e3f565b905081810360a0830152611f338185611e3f565b9050611f4260c083018461169a565b9897505050505050505056fea26469706673582212208aabcd7d741fc4c7f6ae64595c9cf1b6624c095298e6aa94913d60bf2b21042864736f6c63430008140033",
  "linkReferences": {},
  "deployedLinkReferences": {}
}